{"abi":[{"type":"function","name":"computeX1","inputs":[{"name":"x1","type":"uint256","internalType":"uint256"},{"name":"x2","type":"uint256","internalType":"uint256"},{"name":"x3","type":"uint256","internalType":"uint256"}],"outputs":[{"name":"X1","type":"uint256[2]","internalType":"uint256[2]"}],"stateMutability":"view"},{"type":"function","name":"verifyComputation","inputs":[{"name":"A1","type":"uint256[2]","internalType":"uint256[2]"},{"name":"B2","type":"uint256[2]","internalType":"uint256[2]"},{"name":"C1","type":"uint256[2]","internalType":"uint256[2]"},{"name":"x1","type":"uint256","internalType":"uint256"},{"name":"x2","type":"uint256","internalType":"uint256"},{"name":"x3","type":"uint256","internalType":"uint256"}],"outputs":[{"name":"","type":"bool","internalType":"bool"}],"stateMutability":"view"}],"bytecode":{"object":"0x608060405234801561001057600080fd5b506105ea806100206000396000f3fe608060405234801561001057600080fd5b50600436106100365760003560e01c8063107ee4a51461003b5780636409849214610064575b600080fd5b61004e61004936600461040c565b610087565b60405161005b9190610438565b60405180910390f35b6100776100723660046104e7565b610107565b604051901515815260200161005b565b61008f6103ee565b600061009e60016002876101f8565b905060006100af60016002876101f8565b905060006100c060016002876101f8565b8351602085015184519293506000926100e39291908660015b60200201516102f4565b8051602082015184519293506100fb928560016100d9565b98975050505050505050565b600080610115858585610087565b9050606060008060086001600160a01b0316836040516101359190610561565b600060405180830381855afa9150503d8060008114610170576040519150601f19603f3d011682016040523d82523d6000602084013e610175565b606091505b5091509150816101c45760405162461bcd60e51b81526020600482015260156024820152742830b4b934b7339031b432b1b5903330b4b632b21760591b60448201526064015b60405180910390fd5b806000815181106101d7576101d761054b565b01602001516001600160f81b03191615159450505050509695505050505050565b6102006103ee565b604080516020810186905290810184905260608101839052600090819060079060800160408051601f198184030181529082905261023d91610561565b600060405180830381855afa9150503d8060008114610278576040519150601f19603f3d011682016040523d82523d6000602084013e61027d565b606091505b5091509150816102cf5760405162461bcd60e51b815260206004820152601d60248201527f5363616c6172206d756c7469706c69636174696f6e206661696c65642e00000060448201526064016101bb565b808060200190518101906102e39190610590565b602085015283525090949350505050565b6102fc6103ee565b60408051602081018790529081018590526060810184905260808101839052600090819060069060a00160408051601f198184030181529082905261034091610561565b600060405180830381855afa9150503d806000811461037b576040519150601f19603f3d011682016040523d82523d6000602084013e610380565b606091505b5091509150816103c85760405162461bcd60e51b815260206004820152601360248201527222a19030b23234ba34b7b7103330b4b632b21760691b60448201526064016101bb565b808060200190518101906103dc9190610590565b60208501528352509095945050505050565b60405180604001604052806002906020820280368337509192915050565b60008060006060848603121561042157600080fd5b505081359360208301359350604090920135919050565b60408101818360005b6002811015610460578151835260209283019290910190600101610441565b50505092915050565b600082601f83011261047a57600080fd5b6040516040810181811067ffffffffffffffff821117156104ab57634e487b7160e01b600052604160045260246000fd5b80604052508060408401858111156104c257600080fd5b845b818110156104dc5780358352602092830192016104c4565b509195945050505050565b600080600080600080610120878903121561050157600080fd5b61050b8888610469565b955061051a8860408901610469565b94506105298860808901610469565b935060c0870135925060e0870135915061010087013590509295509295509295565b634e487b7160e01b600052603260045260246000fd5b6000825160005b818110156105825760208186018101518583015201610568565b506000920191825250919050565b600080604083850312156105a357600080fd5b50508051602090910151909290915056fea26469706673582212201401d02ec1e1dd30218dd861be9406399d7e92c5c1a508232c39b5eb8a6e7fc364736f6c63430008170033","linkReferences":{}},"methodIdentifiers":{"computeX1(uint256,uint256,uint256)":"107ee4a5","verifyComputation(uint256[2],uint256[2],uint256[2],uint256,uint256,uint256)":"64098492"},"id":24}