{"abi":[{"type":"function","name":"computeX1","inputs":[{"name":"x1","type":"uint256","internalType":"uint256"},{"name":"x2","type":"uint256","internalType":"uint256"},{"name":"x3","type":"uint256","internalType":"uint256"}],"outputs":[{"name":"X1","type":"uint256[2]","internalType":"uint256[2]"}],"stateMutability":"view"},{"type":"function","name":"verifyComputation","inputs":[{"name":"A1","type":"uint256[2]","internalType":"uint256[2]"},{"name":"B2","type":"uint256[2]","internalType":"uint256[2]"},{"name":"C1","type":"uint256[2]","internalType":"uint256[2]"},{"name":"x1","type":"uint256","internalType":"uint256"},{"name":"x2","type":"uint256","internalType":"uint256"},{"name":"x3","type":"uint256","internalType":"uint256"}],"outputs":[{"name":"","type":"bool","internalType":"bool"}],"stateMutability":"view"}],"bytecode":{"object":"0x608060405234801561001057600080fd5b506106a7806100206000396000f3fe608060405234801561001057600080fd5b50600436106100365760003560e01c8063107ee4a51461003b5780636409849214610064575b600080fd5b61004e610049366004610498565b610087565b60405161005b91906104c4565b60405180910390f35b610077610072366004610573565b610107565b604051901515815260200161005b565b61008f61047a565b600061009e6001600287610204565b905060006100af6001600287610204565b905060006100c06001600287610204565b8351602085015184519293506000926100e39291908660015b6020020151610300565b8051602082015184519293506100fb928560016100d9565b98975050505050505050565b600080610115858585610087565b9050600061012389836103fa565b905060008060086001600160a01b031683604051610141919061061d565b600060405180830381855afa9150503d806000811461017c576040519150601f19603f3d011682016040523d82523d6000602084013e610181565b606091505b5091509150816101d05760405162461bcd60e51b81526020600482015260156024820152742830b4b934b7339031b432b1b5903330b4b632b21760591b60448201526064015b60405180910390fd5b806000815181106101e3576101e36105d7565b01602001516001600160f81b03191615159450505050509695505050505050565b61020c61047a565b604080516020810186905290810184905260608101839052600090819060079060800160408051601f19818403018152908290526102499161061d565b600060405180830381855afa9150503d8060008114610284576040519150601f19603f3d011682016040523d82523d6000602084013e610289565b606091505b5091509150816102db5760405162461bcd60e51b815260206004820152601d60248201527f5363616c6172206d756c7469706c69636174696f6e206661696c65642e00000060448201526064016101c7565b808060200190518101906102ef9190610630565b602085015283525090949350505050565b61030861047a565b60408051602081018790529081018590526060810184905260808101839052600090819060069060a00160408051601f198184030181529082905261034c9161061d565b600060405180830381855afa9150503d8060008114610387576040519150601f19603f3d011682016040523d82523d6000602084013e61038c565b606091505b5091509150816103d45760405162461bcd60e51b815260206004820152601360248201527222a19030b23234ba34b7b7103330b4b632b21760691b60448201526064016101c7565b808060200190518101906103e89190610630565b60208501528352509095945050505050565b815160208084015160408051808401949094528381019190915280518084038201815260608085018352855193860151608086019490945260a0808601949094528251808603909401845260c085019092529092909190610461908390839060e001610654565b6040516020818303038152906040529250505092915050565b60405180604001604052806002906020820280368337509192915050565b6000806000606084860312156104ad57600080fd5b505081359360208301359350604090920135919050565b60408101818360005b60028110156104ec5781518352602092830192909101906001016104cd565b50505092915050565b600082601f83011261050657600080fd5b6040516040810181811067ffffffffffffffff8211171561053757634e487b7160e01b600052604160045260246000fd5b806040525080604084018581111561054e57600080fd5b845b81811015610568578035835260209283019201610550565b509195945050505050565b600080600080600080610120878903121561058d57600080fd5b61059788886104f5565b95506105a688604089016104f5565b94506105b588608089016104f5565b935060c0870135925060e0870135915061010087013590509295509295509295565b634e487b7160e01b600052603260045260246000fd5b6000815160005b8181101561060e57602081850181015186830152016105f4565b50600093019283525090919050565b600061062982846105ed565b9392505050565b6000806040838503121561064357600080fd5b505080516020909101519092909150565b600061066961066383866105ed565b846105ed565b94935050505056fea264697066735822122089dd7f9bf97e2d6ffe3c1b3da1b955da6058e5db1c237bb9e0211cb82b8b256864736f6c63430008170033","linkReferences":{}},"methodIdentifiers":{"computeX1(uint256,uint256,uint256)":"107ee4a5","verifyComputation(uint256[2],uint256[2],uint256[2],uint256,uint256,uint256)":"64098492"},"id":23}