{"abi":[{"type":"function","name":"computeX1","inputs":[{"name":"x1","type":"uint256","internalType":"uint256"},{"name":"x2","type":"uint256","internalType":"uint256"},{"name":"x3","type":"uint256","internalType":"uint256"}],"outputs":[{"name":"X1","type":"uint256[2]","internalType":"uint256[2]"}],"stateMutability":"view"},{"type":"function","name":"verifyComputation","inputs":[{"name":"A1","type":"uint256[2]","internalType":"uint256[2]"},{"name":"x1","type":"uint256","internalType":"uint256"},{"name":"x2","type":"uint256","internalType":"uint256"},{"name":"x3","type":"uint256","internalType":"uint256"}],"outputs":[{"name":"","type":"bytes","internalType":"bytes"}],"stateMutability":"view"}],"bytecode":{"object":"0x608060405234801561001057600080fd5b506105ac806100206000396000f3fe608060405234801561001057600080fd5b50600436106100355760003560e01c80624d285a1461003a578063107ee4a514610063575b600080fd5b61004d6100483660046103ef565b610083565b60405161005a91906104a6565b60405180910390f35b6100766100713660046104d9565b610140565b60405161005a9190610505565b60606000610092858585610140565b865160208089015183518285015160408051948501959095528385019290925260608301526080808301919091528251808303909101815260a090910190915290915060008060086001600160a01b0316836040516100f19190610536565b600060405180830381855afa9150503d806000811461012c576040519150601f19603f3d011682016040523d82523d6000602084013e610131565b606091505b509a9950505050505050505050565b6101486103bb565b600061015760016002876101c0565b9050600061016860016002876101c0565b9050600061017960016002876101c0565b83516020850151845192935060009261019c9291908660015b60200201516102c1565b8051602082015184519293506101b492856001610192565b98975050505050505050565b6101c86103bb565b604080516020810186905290810184905260608101839052600090819060079060800160408051601f198184030181529082905261020591610536565b600060405180830381855afa9150503d8060008114610240576040519150601f19603f3d011682016040523d82523d6000602084013e610245565b606091505b50915091508161029c5760405162461bcd60e51b815260206004820152601d60248201527f5363616c6172206d756c7469706c69636174696f6e206661696c65642e00000060448201526064015b60405180910390fd5b808060200190518101906102b09190610552565b602085015283525090949350505050565b6102c96103bb565b60408051602081018790529081018590526060810184905260808101839052600090819060069060a00160408051601f198184030181529082905261030d91610536565b600060405180830381855afa9150503d8060008114610348576040519150601f19603f3d011682016040523d82523d6000602084013e61034d565b606091505b5091509150816103955760405162461bcd60e51b815260206004820152601360248201527222a19030b23234ba34b7b7103330b4b632b21760691b6044820152606401610293565b808060200190518101906103a99190610552565b60208501528352509095945050505050565b60405180604001604052806002906020820280368337509192915050565b634e487b7160e01b600052604160045260246000fd5b60008060008060a0858703121561040557600080fd5b85601f86011261041457600080fd5b6040516040810181811067ffffffffffffffff82111715610437576104376103d9565b806040525080604087018881111561044e57600080fd5b875b81811015610468578035835260209283019201610450565b509198913597505060608601359560800135945092505050565b60005b8381101561049d578181015183820152602001610485565b50506000910152565b60208152600082518060208401526104c5816040850160208701610482565b601f01601f19169190910160400192915050565b6000806000606084860312156104ee57600080fd5b505081359360208301359350604090920135919050565b60408101818360005b600281101561052d57815183526020928301929091019060010161050e565b50505092915050565b60008251610548818460208701610482565b9190910192915050565b6000806040838503121561056557600080fd5b50508051602090910151909290915056fea2646970667358221220b18c452da25e0c3b7a4dc84463e15761ea2d90b460c6bb2a8436d6c6a98e296f64736f6c63430008170033","linkReferences":{}},"methodIdentifiers":{"computeX1(uint256,uint256,uint256)":"107ee4a5","verifyComputation(uint256[2],uint256,uint256,uint256)":"004d285a"},"id":23}